:020000000E2AC6
:10000800FF00030E8301B4000A08B3008A017008D8
:10001800A5007108A4007208A3007308A200740860
:10002800A1000C1D3E283208031927282B08F000D0
:10003800F101700896002A089500B201093097006E
:100048008F018E013C282A08403CF3002B08031C32
:10005800013E9C3CF4007408F000F1017008960021
:1000680073089500083097000130B2008F018E01A7
:10007800FB308C052508F0002408F1002308F20065
:100088002208F3002108F40033088A00340E8300A4
:06009800FF0E7F0E0900BF
:0E009E00F201F101F001F801F3010030080059
:1000AC007B15FB1F60280130F300F201F101F00118
:0800BC00FA0DF20CFF30080000
:0800C400FA1FF21300300800DE
:0E00CC00831203132F088A002E0882000800FA
:1000DA00710DF80DF90D7408F8027508031C750FF7
:1000EA00F902F00DF10D0F30FC00710DF80DF90D4C
:1000FA007408701C8628F8027508031C750FF9022B
:10010A008B28F80775080318750FF907F00DF10D1C
:10011A00FC0B7A28701897287408F80775080318D2
:08012A00750FF9070000080041
:10013200A0017208031DAE287108F2007008F100D8
:10014200F001A0157208031DAE287108F200F1013A
:10015200A011201672080319BC282008F302031DFF
:10016200031CC0280310F21BC428F00DF10DF20D80
:10017200F30BB428C0280130FC004F20C7280230FE
:0E018200FC005620C7280430FC006220080054
:10019000831203137008F8007108F000F101F201F6
:1001A000F301FB01FC019630F300FA01F01FDE2899
:1001B000F809F009F80A0319F00AFA177008F100B3
:0C01C0007808F000F801F2019920080016
:1001CC004130831203139F00CE3083169F00013001
:0401DC008500080092
:1001E00083120313FB01FA01F9018030F800F10CCE
:1001F000F00C031C04297408F90775080318750F1F
:10020000FA070318FB0A0310F01F0C297408FA07F9
:1002100075080318750FFB07FB0CFA0CF90CF80CAA
:10022000031CF7287B08F3007A08F2007908F10034
:060230007808F000080050
:10023600831203137408003A031D2A297508003A2D
:10024600031D2A29FF30F0007F30F1008329831235
:100256000313FD01F901F801710870040319003454
:1002660071087506FA00FA1BFD09FB01F51F402906
:10027600F409F509F40A0319F50AF11F4729F009EB
:10028600F109F00A0319F10A71087504FA00FA1B5C
:100296005C296D207B186F29FD1F0034F009F109D8
:1002A600F00A0319F10AF809F909F80A0319F90A13
:1002B6000034F51F6B29F11B67297108F9007008D6
:1002C600F800F101F0014F29F101F001F00A0034C4
:1002D600F109F009FB0A4C29F80A0319F90A74080E
:1002E6007802031D4F2975087902031D4F29F9016C
:1002F600F801F00A0319F10AF11F4F290000FF3433
:020306000800ED
:1003080083120313FA017308031D7A147708031D77
:10031800FA147A080319D029033A03199B297A1881
:100328009829F61FCE29CC29F21FCC29CE2972088C
:100338008039FA00F21376088039F6137A06031921
:10034800A9297A080319CC29CE2977087302031939
:10035800B029031CC429C829760872020319B729D1
:10036800031CC429C829750871020319BE29031C76
:10037800C429C829740870020319D0290318C82988
:10038800FA080319CE29CC29FA080319CC29CE2951
:1003980003140800031008000314031508000800DC
:1003A80066208A110A128000840AAE0A0319AF0A6D
:0803B800F003031DD429080025
:1003C000831203131F151F1DE629E3291E08F100E0
:0E03D000F00183161E08F0040030F10408004E
:1003DE0083120313F101F20136087202031DF9298B
:1003EE003508710203180D2AF301F401003074026E
:1003FE00031D032A9B3073020318092AF30A0319FB
:0E040E00F40AFD29F10A0319F20AF329080085
:10041C0083160313870183128701FF30831686002E
:10042C00880183128801E62083128F018E0101302E
:10043C00B2000830970001309000C0308B0083165A
:10044C000C1584308312AA000330AB00B830B50011
:10045C000B30B600EF218430AA000330AB00E02152
:10046C0070088312AC007108AD000530F400003048
:10047C00F500F020FF30F4000330F5001B21C820FC
:10048C007008A6007108A7007208A8007308A900DC
:10049C000030F4000030F5004030F6008030F700FA
:1004AC0084210130031C0030F00070080319612A0C
:1004BC0001308800622A880100303106031D682A49
:1004CC0000303006031D772A0608003A031D772AF0
:1004DC00D030B5000730B600EF210130B00000304D
:1004EC00B10000303106031D7D2A01303006031D9A
:1004FC009C2A0608023A031D9C2A6030B500EA309B
:10050C00B600EF21C430AA000930AB008830B5002A
:10051C001330B600EF218430AA000330AB00B001D9
:10052C00B1016430B5000030B600EF21352A9D2AA8
:02400E00022F7F
:00000001FF
